:0600000002020002085498
:03000B0002066E7C
:03002B0002067159
:2002000075810790E600E04414F0742090E610F090E613F090E6157460F090E691E5AA20BB
:20022000E0057480F080F6C20FD20AC20BD2088521B175B68D7520008520B075B50390E68F
:20024000707403F075A0FF75B4FFC2088521B190E000E4F0A3A883B8E2F978807F30F60820
:20026000DFFC7530E07531007532107533107522007540807541007542017523017524009D
:2002800075F0F012060575F0E8120605755EFC755FBFE478487910F608D9FC75270012056D
:2002A0002D0564201D1CE5A86013203810303517303A05E55520E005C20F0202C9E56420B6
:2002C000E105D20F0202C9B20F8521B1E5225403B4032675B30075A0F5C2A7E590D2A7208E
:2002E000E50302039DC210C21175A0F075B3FF759000C2A6D2A602039DB4022675B30075A3
:20030000A0F5C2A7E590D2A720E60302039DD210D21175A0F375B3FF759007C2A6D2A60264
:20032000039DB4013575B30075A0F5C2A7E590D2A730E669C210D21175A0F375B3FF759042
:2003400047C2A6D2A675A0F075B3FF759000C2A6D2A600C2A6D2A602039D75B30075A0F5B1
:20036000C2A7E590D2A730E5347F2075A0F075B3FF85309A85319B90E67B75AF07E0F590F1
:20038000C2A6D2A6DFF7859A30859B3175AF06D5330B7530E0753100853233D210E5AA3014
:2003A000E00302043F20201590F000E0B40140D2207545E075460075470802043785459ABF
:2003C00085469B90E67B759DF0759E00058690E67C75AF077840E00586F00586D8F875AF77
:2003E00006859B46859A45D5474DC220020437B40233A3E0700612052D020437B4011975FF
:20040000A800A3E0F52778507908A3E0F608D9FAA3E012059A020437B4021CA3E0F5271204
:20042000053D020437B4030FA3E0F532A3A3A3A3E0F541A3E0F54290E6917480F0619D3058
:200440003134E5BA20E22F759AE7759BC090E67B75AF07A9A875A800E52654F8F0E527F0D4
:2004600078487F08E608F0DFFBC23189A875AF0690E68F740AF0301C25E5AA20E520C21CB9
:20048000759AF8759B0090E67B75AF0778807F30E608F0DFFB75AF0690E6997430F075B3D5
:2004A0000075A0F5C2A7E590D2A700C2A7E590D2A730E07720E45830E1030204D775A0F0AB
:2004C000C2A7E590D2A7301912C219700AD21A85424385414480C7D21880C32018C0301A5F
:2004E0001BC3F8E5439401F543E5449400F544454370AB754080754330C21AE8A840F96670
:200500006004E9F6D21B0540D54393D218808F20190BD219C218301B04C21BD21C75B30077
:2005200075A0F0C2A7E590D2A7819E41A175A80075C800C28CD20AC20B8521B12275A80077
:2005400075C800C28C740190059093F5CDF5CB740190059593F5CCF5CA7589297561087535
:2005600060B3755B06755A7E752600752580E4F55DF55CF559F58CF58A7565A0D236C20077
:200580008520B0C20B8521B175A8A3D28CD2CA2200FCFCFCFB00BFBE18EE75A80075C8003A
:2005A000C28CF890059093F5CDF5CBE890059593F5CCF5CA752600B801057A000205DCB828
:2005C000020A7A01D2334356040205DCB803077A02D2340205DC7A04D233D2348A25755BE0
:2005E00006755A89E4F55DF55CD237C2018520B1303905D20A0205FAC20AD20B8521B17534
:20060000A8A0D2CA2275B3FFE5F04403F5A0759080C2A6D2A6E5F04400F5A075900CC2A670
:20062000D2A6E5F04401F5A0759000C2A6D2A6E5F04403F5A0759007C2A6D2A67590BFC28B
:20064000A6D2A6E5F04402F5A0759010C2A6D2A6E5F04403F5A0759007C2A6D2A6E5F04421
:2006600002F5A075906FC2A6D2A675A0FF22C23532C0D0C0E0C0F0C2CFC05AC05B22D5652E
:2006800005D2317565A002090985575C755B06755A9502090912081FE55720383C5357F09B
:2006A000540F04C0E0E5255406B4000BD0E0B40A26E4D2320206D7E5565403302A0EB40205
:2006C000EBD0E0B40411E4D2320206D7B402DDD0E0B40503E4D232425785565C755B0675ED
:2006E0005AE502090912081F303212C232E55654035356FC04B40303E4D232425685555C5B
:20070000755B07755A0902090912081F303212C232E555540F5355F004B40A03E4D2324251
:200720005585545C755B07755A2D02090912081F303212C232E55454075354F804B40603B3
:20074000E4D232425485535C755B07755A5102090912081F30321EC2323028065357F043F4
:200760005702E553540F5353F004B40A06E4D2325357F0425385525C755B07755A810209AB
:200780000912081F303212C232E55254075352F804B40603E4D232425285515C755B0775C5
:2007A0005AA502090912081F303225C232E551540F5351F004F5F074035550B40208E5F0AD
:2007C000B4040B0207CBE5F0B40A03E4D232425185505C755B07755ADC02090912081F3041
:2007E0003210C232E55054035350FC04B40301E44250855E5C755B07755AFE020909120855
:200800001F855F5C755B08755A0D02090912081F85575C755B06755A951209C402090920F3
:20082000300EB2018520B0D230D0E0D0E0020909E55C54016005B2018520B0C230055D7431
:2008400008B55D04755D0022E55C03F55CD0E0D0E0020909C0D0C0E0C0F0C28C858C628557
:200860008A63E4F58CF58AD28CB2008520B0C3E56213F562E56313F563C3E56213F562E5C2
:200880006313F563C3E5639428F563E5629400F562E4C060C06122E5627005C2350208AA8B
:2008A00005597402B559621209C47561087560B30208CCE5626005C2350208CC0559741876
:2008C000B559467561087560D20208CC755900020909E562700AC2357561087560B380ECFD
:2008E0007561087560E9020909E562600A7561087560B3C23580D505597402B5590B756122
:200900000975601080C6755C00D0F0D0E0D0D032120980855C5775610975601E80E8120968
:2009200080855C5675610975602C80DA120980855C5575610975603A80CC120980855C54EB
:2009400075610975604880BE120980855C5375610975605680B0120980855C527561097532
:20096000606480A2120980855C517561097560728094120980855C5075610875609780866E
:20098000E5623030097028C23074800209997008D230D0E0D0E02109E4055DC55C03425C79
:2009A0007408B55D04755D0022D0E0D0E02109C230E4C235F55DF55C7561087560B3D0E0A1
:2009C000D0E02109202F03020A46E55654037076E5577072E54E5403B4026BE54F540FB40D
:2009E000092DC234C2CA75CDFC75CBFCE55630E20E75250175CCBE75CABED233020A0A7543
:200A0000250075CCBF75CABFC233D2CA020A46B4041A752502C2CA75CDFC75CBFC75CC1803
:200A200075CA18D2CAC233D234020A46B40317752504C2CA75CDFB75CBFB75CCEE75CAEEAA
:200A4000D2CAD233D23485574F85564E85554D85544C85534B85524A855149855048D231CC
:090A6000202F02D2357565A62293
:00000001FF
