:060000000202000209A249
:03000B000207BC2D
:03002B000207BF0A
:20020000758107907FA17401F0907FDE7407F0907FDF7405F0907FDD7409F0907FAB74187E
:20022000F09078497401F0C20FD20AC20BD2088521B175B68D7520008520B075B503907F8F
:200240009574C7F0E58E54F8F58EC2088521B1902000E4F0A3A883B828F978807F30F608AB
:20026000DFFC7530207531007532107533107534227535007536107537107538247539005E
:20028000753A10753B10753C26753D00753E10753F107522007540807541007542017523FD
:2002A0000175240075F08012078B75F08412078B75F08812078B75F08C12078B755EFC7524
:2002C0005FBFE478487910F608D9FC7527001206B30564907FABE030E307D20F8521B180C4
:2002E000F0201D1CE5A86013203810303517303A05E55520E005C20F020307E56420E105F7
:20030000D20F020307B20F8521B1E5225403B40316908005E020E503020394C210C21190E2
:200320008000E4F0020394B40214908005E030E663D210D2119080037407F0020394B40107
:200340001A908005E030E64CC210D2119080037447F0908000E4F0F0020394908005E03027
:20036000E5327F209080000586907FE3E530F0A3E531F0A3E00586F00586DFF8907FE3E05A
:20038000F530A3E0F531D5330B753020753100853233D210E52203035403B40316908405FB
:2003A000E020E503020420C212C213908400E4F0020420B40214908405E030E663D212D286
:2003C000139084037407F0020420B4011A908405E030E64CC212D2139084037447F09084A9
:2003E00000E4F0F0020420908405E030E5327F209084000586907FE3E534F0A3E535F0A34A
:20040000E00586F00586DFF8907FE3E0F534A3E0F535D5370B753422753500853637D21215
:20042000E522C45403B40316908805E020E5030204ABC214C215908800E4F00204ABB40217
:2004400014908805E030E663D214D2159088037407F00204ABB4011A908805E030E64CC21E
:2004600014D2159088037447F0908800E4F0F00204AB908805E030E5327F209088000586A8
:20048000907FE3E538F0A3E539F0A3E00586F00586DFF8907FE3E0F538A3E0F539D53B0B81
:2004A000753824753900853A3BD214E522C403035403B40316908C05E020E503020538C2DE
:2004C00016C217908C00E4F0020538B40214908C05E030E663D216D217908C037407F0025D
:2004E0000538B4011A908C05E030E64CC216D217908C037447F0908C00E4F0F00205389053
:200500008C05E030E5327F20908C000586907FE3E53CF0A3E53DF0A3E00586F00586DFF8C5
:20052000907FE3E0F53CA3E0F53DD53F0B753C26753D00853E3FD216907FC8E030E10302A4
:2005400005E4202015907DC0E0B4013FD2207545207546007547200205DC90784F747DF03E
:20056000A374C0F0A3E545F0A3E546F09078547440F0A3F0E030E7FCE5462440F546E435D0
:2005800045F545D54756C2200205DCB40233A3E070061206B30205DCB4011975A800A3E0A7
:2005A000F52778507908A3E0F608D9FAA3E01207200205DCB40225A3E0F5271206C3020587
:2005C000DCB40318A3E0F532A3E0F536A3E0F53AA3E0F53EA3E0F541A3E0F542907FC974F1
:2005E00001F0A138303132907FB6E020E12B907FE3747EF0A37480F0A3A9A875A800E52656
:2006000054F8F0E527F078487F08E608F0DFFBC23189A8907FB7740AF0301C23907FB8E035
:2006200020E11CC21C907FE3747EF0A37400F0A378807F30E608F0DFFB907FB97430F090F6
:200640008005E0E030E06A20E45330E103020665908000E0301912C219700AD21A8542436D
:2006600085414480DAD21880D62018D3301A1BC3F8E5439401F543E5449400F544454370C8
:20068000BE754080754330C21AE8A840F9666004E9F6D21B0540D543A6D21880A220190BF1
:2006A000D219C218301B04C21BD21C908000E0808E41D175A80075C800C28CD20AC20B8575
:2006C00021B12275A80075C800C28C740190071693F5CDF5CB740190071B93F5CCF5CA7598
:2006E000892975610A756001755B07755ACC752600752580E4F55DF55CF559F58CF58A7521
:2007000065A0D236C2008520B0C20B8521B175A8A3D28CD2CA2200FCFCFCFB00BFBE18EE43
:2007200075A80075C800C28CF890071693F5CDF5CBE890071B93F5CCF5CA752600B8010551
:200740007A00020762B8020A7A01D233435604020762B803077A02D2340207627A04D23336
:20076000D2348A25755B07755AD7E4F55DF55CD237C2018520B1303905D20A020780C20AFF
:20078000D20B8521B175A8A0D2CA2285F0837582037480F0758200740CF07582017400F011
:2007A0007582037407F074BFF07582027410F07582037407F0758202746FF022C23532C008
:2007C000D0C0E0C0F0C2CFC05AC05B22D56505D2317565A0020A5785575C755B07755AE331
:2007E000020A5712096DE55720383C5357F0540F04C0E0E5255406B4000BD0E0B40A26E402
:20080000D232020825E5565403302A0EB402EBD0E0B40411E4D232020825B402DDD0E0B483
:200820000503E4D232425785565C755B08755A33020A5712096D303212C232E556540353E6
:2008400056FC04B40303E4D232425685555C755B08755A57020A5712096D303212C232E59C
:2008600055540F5355F004B40A03E4D232425585545C755B08755A7B020A5712096D303240
:2008800012C232E55454075354F804B40603E4D232425485535C755B08755A9F020A5712F1
:2008A000096D30321EC2323028065357F0435702E553540F5353F004B40A06E4D23253572F
:2008C000F0425385525C755B08755ACF020A5712096D303212C232E55254075352F804B4B0
:2008E0000603E4D232425285515C755B08755AF3020A5712096D303225C232E551540F5355
:2009000051F004F5F074035550B40208E5F0B4040B020919E5F0B40A03E4D2324251855031
:200920005C755B09755A2A020A5712096D303210C232E55054035350FC04B40301E44250DB
:20094000855E5C755B09755A4C020A5712096D855F5C755B09755A5B020A5712096D85576F
:200960005C755B07755AE3120B12020A5720300EB2018520B0D230D0E0D0E0020A57E55C94
:2009800054016005B2018520B0C230055D7408B55D04755D0022E55C03F55CD0E0D0E002C4
:2009A0000A57C0D0C0E0C0F0C28C858C62858A63E4F58CF58AD28CB2008520B0C3E562135D
:2009C000F562E56313F563C3E56213F562E56313F563C3E5639428F563E5629400F562E4B1
:2009E000C060C06122E5627005C2350209F805597402B55962120B1275610A756001020AA9
:200A00001AE5626005C235020A1A05597418B5594675610A756020020A1A755900020A5789
:200A2000E562700AC23575610A75600180EC75610A756037020A57E562600A75610A756027
:200A400001C23580D505597402B5590B75610A75605E80C6755C00D0F0D0E0D0D032120AD4
:200A6000CE855C5775610A75606C80E8120ACE855C5675610A75607A80DA120ACE855C551D
:200A800075610A75608880CC120ACE855C5475610A75609680BE120ACE855C5375610A75B2
:200AA00060A480B0120ACE855C5275610A7560B280A2120ACE855C5175610A7560C08094B7
:200AC000120ACE855C507561097560E58086E5623030097028C2307480020AE77008D230C1
:200AE000D0E0D0E04157E4055DC55C03425C7408B55D04755D0022D0E0D0E04157C230E4A2
:200B0000C235F55DF55C75610A756001D0E0D0E04157202F03020B94E55654037076E557E6
:200B20007072E54E5403B4026BE54F540FB4092DC234C2CA75CDFC75CBFCE55630E20E75DB
:200B4000250175CCBE75CABED233020B5875250075CCBF75CABFC233D2CA020B94B4041A6D
:200B6000752502C2CA75CDFC75CBFC75CC1875CA18D2CAC233D234020B94B403177525047F
:200B8000C2CA75CDFB75CBFB75CCEE75CAEED2CAD233D23485574F85564E85554D85544CAE
:170BA00085534B85524A855149855048D231202F02D2357565A622C1
:00000001FF
